{
  "contractName": "Airbnb",
  "abi": [
    {
      "anonymous": false,
      "inputs": [
        {
          "indexed": true,
          "internalType": "uint256",
          "name": "propertyId",
          "type": "uint256"
        },
        {
          "indexed": true,
          "internalType": "uint256",
          "name": "bookingId",
          "type": "uint256"
        }
      ],
      "name": "NewBooking",
      "type": "event"
    },
    {
      "anonymous": false,
      "inputs": [
        {
          "indexed": true,
          "internalType": "uint256",
          "name": "propertyId",
          "type": "uint256"
        }
      ],
      "name": "NewProperty",
      "type": "event"
    },
    {
      "constant": true,
      "inputs": [],
      "name": "bookingId",
      "outputs": [
        {
          "internalType": "uint256",
          "name": "",
          "type": "uint256"
        }
      ],
      "payable": false,
      "stateMutability": "view",
      "type": "function"
    },
    {
      "constant": true,
      "inputs": [
        {
          "internalType": "uint256",
          "name": "",
          "type": "uint256"
        }
      ],
      "name": "bookings",
      "outputs": [
        {
          "internalType": "uint256",
          "name": "propertyId",
          "type": "uint256"
        },
        {
          "internalType": "uint256",
          "name": "checkInDate",
          "type": "uint256"
        },
        {
          "internalType": "uint256",
          "name": "checkoutDate",
          "type": "uint256"
        },
        {
          "internalType": "address",
          "name": "user",
          "type": "address"
        }
      ],
      "payable": false,
      "stateMutability": "view",
      "type": "function"
    },
    {
      "constant": true,
      "inputs": [],
      "name": "currentUserAddress",
      "outputs": [
        {
          "internalType": "address",
          "name": "",
          "type": "address"
        }
      ],
      "payable": false,
      "stateMutability": "view",
      "type": "function"
    },
    {
      "constant": true,
      "inputs": [],
      "name": "mess",
      "outputs": [
        {
          "internalType": "string",
          "name": "",
          "type": "string"
        }
      ],
      "payable": false,
      "stateMutability": "view",
      "type": "function"
    },
    {
      "constant": true,
      "inputs": [
        {
          "internalType": "uint256",
          "name": "",
          "type": "uint256"
        }
      ],
      "name": "properties",
      "outputs": [
        {
          "internalType": "string",
          "name": "name",
          "type": "string"
        },
        {
          "internalType": "string",
          "name": "description",
          "type": "string"
        },
        {
          "internalType": "bool",
          "name": "isActive",
          "type": "bool"
        },
        {
          "internalType": "uint256",
          "name": "price",
          "type": "uint256"
        },
        {
          "internalType": "address",
          "name": "owner",
          "type": "address"
        }
      ],
      "payable": false,
      "stateMutability": "view",
      "type": "function"
    },
    {
      "constant": true,
      "inputs": [],
      "name": "propertyId",
      "outputs": [
        {
          "internalType": "uint256",
          "name": "",
          "type": "uint256"
        }
      ],
      "payable": false,
      "stateMutability": "view",
      "type": "function"
    },
    {
      "constant": false,
      "inputs": [
        {
          "internalType": "string",
          "name": "name",
          "type": "string"
        },
        {
          "internalType": "string",
          "name": "description",
          "type": "string"
        },
        {
          "internalType": "uint256",
          "name": "price",
          "type": "uint256"
        }
      ],
      "name": "rentOutproperty",
      "outputs": [],
      "payable": false,
      "stateMutability": "nonpayable",
      "type": "function"
    },
    {
      "constant": false,
      "inputs": [],
      "name": "showSender",
      "outputs": [],
      "payable": false,
      "stateMutability": "nonpayable",
      "type": "function"
    },
    {
      "constant": true,
      "inputs": [],
      "name": "add",
      "outputs": [
        {
          "internalType": "uint256",
          "name": "",
          "type": "uint256"
        }
      ],
      "payable": false,
      "stateMutability": "view",
      "type": "function"
    },
    {
      "constant": true,
      "inputs": [],
      "name": "helloworld",
      "outputs": [
        {
          "internalType": "string",
          "name": "",
          "type": "string"
        }
      ],
      "payable": false,
      "stateMutability": "view",
      "type": "function"
    },
    {
      "constant": false,
      "inputs": [
        {
          "internalType": "uint256",
          "name": "_propertyId",
          "type": "uint256"
        },
        {
          "internalType": "uint256",
          "name": "checkInDate",
          "type": "uint256"
        },
        {
          "internalType": "uint256",
          "name": "checkoutDate",
          "type": "uint256"
        }
      ],
      "name": "rentProperty",
      "outputs": [],
      "payable": true,
      "stateMutability": "payable",
      "type": "function"
    },
    {
      "constant": false,
      "inputs": [
        {
          "internalType": "uint256",
          "name": "_propertyId",
          "type": "uint256"
        }
      ],
      "name": "markPropertyAsInactive",
      "outputs": [],
      "payable": false,
      "stateMutability": "nonpayable",
      "type": "function"
    }
  ],
  "bytecode": "0x60806040526040518060400160405280600a81526020017f68656c6c6f776f726c6400000000000000000000000000000000000000000000815250600590805190602001906200005192919062000066565b503480156200005f57600080fd5b5062000115565b828054600181600116156101000203166002900490600052602060002090601f016020900481019282601f10620000a957805160ff1916838001178555620000da565b82800160010185558215620000da579182015b82811115620000d9578251825591602001919060010190620000bc565b5b509050620000e99190620000ed565b5090565b6200011291905b808211156200010e576000816000905550600101620000f4565b5090565b90565b61126480620001256000396000f3fe6080604052600436106100a75760003560e01c80634f2be91f116100645780634f2be91f14610447578063a4d64ff414610472578063b3e3f80314610489578063d2da7c71146104c4578063ee7a3b8e14610506578063f7b1080814610531576100a7565b8063037bbf25146100ac5780630a10df7c146101035780631dab301e1461012e578063231753f7146101be5780632c56ed271461024e5780632f2f4859146103b7575b600080fd5b3480156100b857600080fd5b506100c1610696565b604051808273ffffffffffffffffffffffffffffffffffffffff1673ffffffffffffffffffffffffffffffffffffffff16815260200191505060405180910390f35b34801561010f57600080fd5b506101186106bc565b6040518082815260200191505060405180910390f35b34801561013a57600080fd5b506101676004803603602081101561015157600080fd5b81019080803590602001909291905050506106c2565b604051808581526020018481526020018381526020018273ffffffffffffffffffffffffffffffffffffffff1673ffffffffffffffffffffffffffffffffffffffff16815260200194505050505060405180910390f35b3480156101ca57600080fd5b506101d3610712565b6040518080602001828103825283818151815260200191508051906020019080838360005b838110156102135780820151818401526020810190506101f8565b50505050905090810190601f1680156102405780820380516001836020036101000a031916815260200191505b509250505060405180910390f35b34801561025a57600080fd5b506103b56004803603606081101561027157600080fd5b810190808035906020019064010000000081111561028e57600080fd5b8201836020820111156102a057600080fd5b803590602001918460018302840111640100000000831117156102c257600080fd5b91908080601f016020809104026020016040519081016040528093929190818152602001838380828437600081840152601f19601f8201169050808301925050505050505091929192908035906020019064010000000081111561032557600080fd5b82018360208201111561033757600080fd5b8035906020019184600183028401116401000000008311171561035957600080fd5b91908080601f016020809104026020016040519081016040528093929190818152602001838380828437600081840152601f19601f820116905080830192505050505050509192919290803590602001909291905050506107b0565b005b3480156103c357600080fd5b506103cc610953565b6040518080602001828103825283818151815260200191508051906020019080838360005b8381101561040c5780820151818401526020810190506103f1565b50505050905090810190601f1680156104395780820380516001836020036101000a031916815260200191505b509250505060405180910390f35b34801561045357600080fd5b5061045c6109f5565b6040518082815260200191505060405180910390f35b34801561047e57600080fd5b50610487610a12565b005b34801561049557600080fd5b506104c2600480360360208110156104ac57600080fd5b8101908080359060200190929190505050610a55565b005b610504600480360360608110156104da57600080fd5b81019080803590602001909291908035906020019092919080359060200190929190505050610b5e565b005b34801561051257600080fd5b5061051b610cca565b6040518082815260200191505060405180910390f35b34801561053d57600080fd5b5061056a6004803603602081101561055457600080fd5b8101908080359060200190929190505050610cd0565b604051808060200180602001861515151581526020018581526020018473ffffffffffffffffffffffffffffffffffffffff1673ffffffffffffffffffffffffffffffffffffffff168152602001838103835288818151815260200191508051906020019080838360005b838110156105f05780820151818401526020810190506105d5565b50505050905090810190601f16801561061d5780820380516001836020036101000a031916815260200191505b50838103825287818151815260200191508051906020019080838360005b8381101561065657808201518184015260208101905061063b565b50505050905090810190601f1680156106835780820380516001836020036101000a031916815260200191505b5097505050505050505060405180910390f35b600460009054906101000a900473ffffffffffffffffffffffffffffffffffffffff1681565b60025481565b60036020528060005260406000206000915090508060000154908060010154908060020154908060030160009054906101000a900473ffffffffffffffffffffffffffffffffffffffff16905084565b60058054600181600116156101000203166002900480601f0160208091040260200160405190810160405280929190818152602001828054600181600116156101000203166002900480156107a85780601f1061077d576101008083540402835291602001916107a8565b820191906000526020600020905b81548152906001019060200180831161078b57829003601f168201915b505050505081565b6107b8611013565b6040518060c001604052808581526020018481526020016001151581526020018381526020013373ffffffffffffffffffffffffffffffffffffffff16815260200161016d60405190808252806020026020018201604052801561082b5781602001602082028038833980820191505090505b5081525090508060016000805481526020019081526020016000206000820151816000019080519060200190610862929190611061565b50602082015181600101908051906020019061087f929190611061565b5060408201518160020160006101000a81548160ff0219169083151502179055506060820151816003015560808201518160040160006101000a81548173ffffffffffffffffffffffffffffffffffffffff021916908373ffffffffffffffffffffffffffffffffffffffff16021790555060a082015181600501908051906020019061090d9291906110e1565b50905050600080815480929190600101919050557f49b7a39e21349b16cf820bbd35d2bc2d9f04dac75faa535510fc24d172b34afd60405160405180910390a250505050565b606060058054600181600116156101000203166002900480601f0160208091040260200160405190810160405280929190818152602001828054600181600116156101000203166002900480156109eb5780601f106109c0576101008083540402835291602001916109eb565b820191906000526020600020905b8154815290600101906020018083116109ce57829003601f168201915b5050505050905090565b600080600a90506000601090506000818301905080935050505090565b33600460006101000a81548173ffffffffffffffffffffffffffffffffffffffff021916908373ffffffffffffffffffffffffffffffffffffffff160217905550565b3373ffffffffffffffffffffffffffffffffffffffff166001600083815260200190815260200160002060040160009054906101000a900473ffffffffffffffffffffffffffffffffffffffff1673ffffffffffffffffffffffffffffffffffffffff1614610b2c576040517f08c379a00000000000000000000000000000000000000000000000000000000081526004018080602001828103825260198152602001807f54484953204953204e4f5420594f55522050524f50455254590000000000000081525060200191505060405180910390fd5b60006001600083815260200190815260200160002060020160006101000a81548160ff02191690831515021790555050565b6000600160008581526020019081526020016000209050600115158160020160009054906101000a900460ff16151514610be3576040517f08c379a00000000000000000000000000000000000000000000000000000000081526004018080602001828103825260238152602001806111dd6023913960400191505060405180910390fd5b60008390505b82811015610c8a5760011515826005018281548110610c0457fe5b90600052602060002090602091828204019190069054906101000a900460ff1615151415610c7d576040517f08c379a00000000000000000000000000000000000000000000000000000000081526004018080602001828103825260308152602001806112006030913960400191505060405180910390fd5b8080600101915050610be9565b50610cb98160040160009054906101000a900473ffffffffffffffffffffffffffffffffffffffff1634610e63565b610cc4848484610eae565b50505050565b60005481565b6001602052806000526040600020600091509050806000018054600181600116156101000203166002900480601f016020809104026020016040519081016040528092919081815260200182805460018160011615610100020316600290048015610d7c5780601f10610d5157610100808354040283529160200191610d7c565b820191906000526020600020905b815481529060010190602001808311610d5f57829003601f168201915b505050505090806001018054600181600116156101000203166002900480601f016020809104026020016040519081016040528092919081815260200182805460018160011615610100020316600290048015610e1a5780601f10610def57610100808354040283529160200191610e1a565b820191906000526020600020905b815481529060010190602001808311610dfd57829003601f168201915b5050505050908060020160009054906101000a900460ff16908060030154908060040160009054906101000a900473ffffffffffffffffffffffffffffffffffffffff16905085565b8173ffffffffffffffffffffffffffffffffffffffff166108fc829081150290604051600060405180830381858888f19350505050158015610ea9573d6000803e3d6000fd5b505050565b60405180608001604052808481526020018381526020018281526020013373ffffffffffffffffffffffffffffffffffffffff1681525060036000600254815260200190815260200160002060008201518160000155602082015181600101556040820151816002015560608201518160030160006101000a81548173ffffffffffffffffffffffffffffffffffffffff021916908373ffffffffffffffffffffffffffffffffffffffff160217905550905050600060016000858152602001908152602001600020905060008390505b82811015610fce576001826005018281548110610f9857fe5b90600052602060002090602091828204019190066101000a81548160ff0219169083151502179055508080600101915050610f7f565b506002600081548092919060010191905055847f4f65de66b4cd3e97fb943ca503efa62b328170ad1a0aac0e9c979a164a317b3860405160405180910390a350505050565b6040518060c00160405280606081526020016060815260200160001515815260200160008152602001600073ffffffffffffffffffffffffffffffffffffffff168152602001606081525090565b828054600181600116156101000203166002900490600052602060002090601f016020900481019282601f106110a257805160ff19168380011785556110d0565b828001600101855582156110d0579182015b828111156110cf5782518255916020019190600101906110b4565b5b5090506110dd9190611187565b5090565b82805482825590600052602060002090601f016020900481019282156111765791602002820160005b8382111561114757835183826101000a81548160ff021916908315150217905550926020019260010160208160000104928301926001030261110a565b80156111745782816101000a81549060ff0219169055600101602081600001049283019260010302611147565b505b50905061118391906111ac565b5090565b6111a991905b808211156111a557600081600090555060010161118d565b5090565b90565b6111d991905b808211156111d557600081816101000a81549060ff0219169055506001016111b2565b5090565b9056fe70726f706572747920776974682074686973204944206973206e6f742061637469766570726f7065727479206973206e6f7420617661696c61626c6520666f72207468652073656c6563746564206461746573a265627a7a72315820f0ce8d468e6ea208233ef2b5d85e9b4d0859afb34af386139f4101c85ffa155764736f6c63430005100032",
  "source": "pragma solidity ^0.5.16;\n\ncontract Airbnb {\n    // INSERT struct Property\n    struct Property {\n        string name;\n        string description;\n        bool isActive; // is property active\n        uint256 price; // per day price in wei (1 ether = 10^18 wei)\n        address owner; // Owner of the property\n        bool[] isBooked;\n        // Is the property booked on a particular day,\n        // For the sake of simplicity, we assign 0 to Jan 1, 1 to Jan 2 and so on\n        // so isBooked[31] will denote whether the property is booked for Feb 1\n    }\n\n    // Unique and sequential propertyId for every new property\n    uint256 public propertyId;\n\n    // mapping of propertyId to Property object\n    mapping(uint256 => Property) public properties;\n\n    // INSERT struct Booking\n    struct Booking {\n        uint256 propertyId;\n        uint256 checkInDate;\n        uint256 checkoutDate;\n        address user;\n    }\n\n    uint256 public bookingId;\n\n    // mapping of bookingId to Booking object\n    mapping(uint256 => Booking) public bookings;\n\n    // This event is emitted when a new property is put up for sale\n    event NewProperty(uint256 indexed propertyId);\n\n    // This event is emitted when a NewBooking is made\n    event NewBooking(uint256 indexed propertyId, uint256 indexed bookingId);\n\n    /**\n     * @dev Put up your funky space on the market\n     * @param name Name of the property\n     * @param description Short description of your property\n     * @param price Price per day in wei (1 ether = 10^18 wei)\n     */\n    function rentOutproperty(\n        string memory name,\n        string memory description,\n        uint256 price\n    ) public {\n        // create a property object\n        Property memory property = Property(\n            name,\n            description,\n            true, /* isActive */\n            price,\n            address(msg.sender), /* owner */\n            new bool[](365)\n        );\n\n        // Persist `property` object to the \"permanent\" storage\n        properties[propertyId] = property;\n\n        // Emit an event to notify the clients\n        emit NewProperty(propertyId++);\n    }\n\n    address public currentUserAddress;\n\n    function showSender() public {\n        currentUserAddress = address(msg.sender);\n    }\n\n    // Defining function to calculate sum of 2 numbers\n    function add() public view returns (uint256) {\n        uint256 num1 = 10;\n        uint256 num2 = 16;\n        uint256 sum = num1 + num2;\n        return sum;\n    }\n\n    string public mess = \"helloworld\";\n\n    function helloworld() public view returns (string memory) {\n        return mess;\n    }\n\n    /**\n     * @dev Make an Airbnb booking\n     * @param _propertyId id of the property to rent out\n     * @param checkInDate Check-in date\n     * @param checkoutDate Check-out date\n     */\n    function rentProperty(\n        uint256 _propertyId,\n        uint256 checkInDate,\n        uint256 checkoutDate\n    ) public payable {\n        // Retrieve `property` object from the storage\n        Property storage property = properties[_propertyId];\n\n        // Assert that property is active\n        require(\n            property.isActive == true,\n            \"property with this ID is not active\"\n        );\n\n        // Assert that property is available for the dates\n        for (uint256 i = checkInDate; i < checkoutDate; i++) {\n            if (property.isBooked[i] == true) {\n                // if property is booked on a day, revert the transaction\n                revert(\"property is not available for the selected dates\");\n            }\n        }\n\n        // Check the customer has sent an amount equal to (pricePerDay * numberOfDays)\n\n        // send funds to the owner of the property\n        _sendFunds(property.owner, msg.value);\n\n        // conditions for a booking are satisfied, so make the booking\n        _createBooking(_propertyId, checkInDate, checkoutDate);\n    }\n\n    function _sendFunds(address beneficiary, uint256 value) internal {\n        // address(uint160()) is a weird solidity quirk\n        // Read more here: https://solidity.readthedocs.io/en/v0.5.10/050-breaking-changes.html?highlight=address%20payable#explicitness-requirements\n        address(uint160(beneficiary)).transfer(value);\n    }\n\n    function _createBooking(\n        uint256 _propertyId,\n        uint256 checkInDate,\n        uint256 checkoutDate\n    ) internal {\n        // Create a new booking object\n        // persist to storage\n        bookings[bookingId] = Booking(\n            _propertyId,\n            checkInDate,\n            checkoutDate,\n            msg.sender\n        );\n\n        // Retrieve `property` object from the storage\n        Property storage property = properties[_propertyId];\n\n        // Mark the property booked on the requested dates\n        for (uint256 i = checkInDate; i < checkoutDate; i++) {\n            property.isBooked[i] = true;\n        }\n\n        // Emit an event to notify clients\n        emit NewBooking(_propertyId, bookingId++);\n    }\n\n    /**\n     * @dev Take down the property from the market\n     * @param _propertyId Property ID\n     */\n    function markPropertyAsInactive(uint256 _propertyId) public {\n        require(\n            properties[_propertyId].owner == msg.sender,\n            \"THIS IS NOT YOUR PROPERTY\"\n        );\n        properties[_propertyId].isActive = false;\n    }\n}\n",
  "sourcePath": "/Users/rodolphepoon/Documents/perso/dairbnb/contracts/Airbnb.sol",
  "compiler": {
    "name": "solc",
    "version": "0.5.16+commit.9c3226ce.Emscripten.clang"
  },
  "schemaVersion": "3.4.8",
  "updatedAt": "2022-07-13T23:09:48.230Z",
  "networkType": "ethereum",
  "devdoc": {
    "methods": {
      "markPropertyAsInactive(uint256)": {
        "details": "Take down the property from the market",
        "params": {
          "_propertyId": "Property ID"
        }
      },
      "rentOutproperty(string,string,uint256)": {
        "details": "Put up your funky space on the market",
        "params": {
          "description": "Short description of your property",
          "name": "Name of the property",
          "price": "Price per day in wei (1 ether = 10^18 wei)"
        }
      },
      "rentProperty(uint256,uint256,uint256)": {
        "details": "Make an Airbnb booking",
        "params": {
          "_propertyId": "id of the property to rent out",
          "checkInDate": "Check-in date",
          "checkoutDate": "Check-out date"
        }
      }
    }
  },
  "userdoc": {
    "methods": {}
  }
}