{
  "contractName": "Chainmessage",
  "abi": [
    {
      "anonymous": false,
      "inputs": [
        {
          "indexed": false,
          "internalType": "address",
          "name": "sender",
          "type": "address"
        },
        {
          "indexed": false,
          "internalType": "string",
          "name": "last_message",
          "type": "string"
        }
      ],
      "name": "print_message",
      "type": "event"
    },
    {
      "constant": true,
      "inputs": [],
      "name": "current_address",
      "outputs": [
        {
          "internalType": "address",
          "name": "",
          "type": "address"
        }
      ],
      "payable": false,
      "stateMutability": "view",
      "type": "function"
    },
    {
      "constant": true,
      "inputs": [],
      "name": "last_message",
      "outputs": [
        {
          "internalType": "string",
          "name": "",
          "type": "string"
        }
      ],
      "payable": false,
      "stateMutability": "view",
      "type": "function"
    },
    {
      "constant": true,
      "inputs": [],
      "name": "lock_date",
      "outputs": [
        {
          "internalType": "uint256",
          "name": "",
          "type": "uint256"
        }
      ],
      "payable": false,
      "stateMutability": "view",
      "type": "function"
    },
    {
      "constant": true,
      "inputs": [],
      "name": "messageid",
      "outputs": [
        {
          "internalType": "uint256",
          "name": "",
          "type": "uint256"
        }
      ],
      "payable": false,
      "stateMutability": "view",
      "type": "function"
    },
    {
      "constant": true,
      "inputs": [
        {
          "internalType": "uint256",
          "name": "",
          "type": "uint256"
        }
      ],
      "name": "messages",
      "outputs": [
        {
          "internalType": "string",
          "name": "",
          "type": "string"
        }
      ],
      "payable": false,
      "stateMutability": "view",
      "type": "function"
    },
    {
      "constant": true,
      "inputs": [],
      "name": "watchable",
      "outputs": [
        {
          "internalType": "bool",
          "name": "",
          "type": "bool"
        }
      ],
      "payable": false,
      "stateMutability": "view",
      "type": "function"
    },
    {
      "constant": false,
      "inputs": [],
      "name": "unlock",
      "outputs": [],
      "payable": false,
      "stateMutability": "nonpayable",
      "type": "function"
    },
    {
      "constant": false,
      "inputs": [],
      "name": "get_last_message",
      "outputs": [
        {
          "internalType": "string",
          "name": "",
          "type": "string"
        }
      ],
      "payable": false,
      "stateMutability": "nonpayable",
      "type": "function"
    },
    {
      "constant": false,
      "inputs": [
        {
          "internalType": "string",
          "name": "text",
          "type": "string"
        }
      ],
      "name": "createMessage",
      "outputs": [],
      "payable": false,
      "stateMutability": "nonpayable",
      "type": "function"
    }
  ],
  "bytecode": "0x60806040526001600460006101000a81548160ff02191690831515021790555034801561002b57600080fd5b50610b6a8061003b6000396000f3fe608060405234801561001057600080fd5b50600436106100935760003560e01c806381fb30701161006657806381fb3070146102c7578063a16a59d71461034a578063a69df4b514610368578063efa7076114610372578063eff2e0871461039057610093565b8063089b12f4146100985780630d80fefd1461011b578063198a2de9146101c25780631e1deb331461027d575b600080fd5b6100a06103b2565b6040518080602001828103825283818151815260200191508051906020019080838360005b838110156100e05780820151818401526020810190506100c5565b50505050905090810190601f16801561010d5780820380516001836020036101000a031916815260200191505b509250505060405180910390f35b6101476004803603602081101561013157600080fd5b810190808035906020019092919050505061060c565b6040518080602001828103825283818151815260200191508051906020019080838360005b8381101561018757808201518184015260208101905061016c565b50505050905090810190601f1680156101b45780820380516001836020036101000a031916815260200191505b509250505060405180910390f35b61027b600480360360208110156101d857600080fd5b81019080803590602001906401000000008111156101f557600080fd5b82018360208201111561020757600080fd5b8035906020019184600183028401116401000000008311171561022957600080fd5b91908080601f016020809104026020016040519081016040528093929190818152602001838380828437600081840152601f19601f8201169050808301925050505050505091929192905050506106bc565b005b610285610836565b604051808273ffffffffffffffffffffffffffffffffffffffff1673ffffffffffffffffffffffffffffffffffffffff16815260200191505060405180910390f35b6102cf61085c565b6040518080602001828103825283818151815260200191508051906020019080838360005b8381101561030f5780820151818401526020810190506102f4565b50505050905090810190601f16801561033c5780820380516001836020036101000a031916815260200191505b509250505060405180910390f35b6103526108fa565b6040518082815260200191505060405180910390f35b610370610900565b005b61037a610a77565b6040518082815260200191505060405180910390f35b610398610a7d565b604051808215151515815260200191505060405180910390f35b60603373ffffffffffffffffffffffffffffffffffffffff16600260009054906101000a900473ffffffffffffffffffffffffffffffffffffffff1673ffffffffffffffffffffffffffffffffffffffff1614610477576040517f08c379a000000000000000000000000000000000000000000000000000000000815260040180806020018281038252601d8152602001807f63757272656e745f61646472657373206973206e6f742073656e64657200000081525060200191505060405180910390fd5b60011515600460009054906101000a900460ff16151514610500576040517f08c379a000000000000000000000000000000000000000000000000000000000815260040180806020018281038252600c8152602001807f63616e6e6f74207761746368000000000000000000000000000000000000000081525060200191505060405180910390fd5b6000600460006101000a81548160ff0219169083151502179055507f4fb64101eb16e6faf4baf7819ad3855628dbb64d7a8da4956413c211b368afb4336000604051808373ffffffffffffffffffffffffffffffffffffffff1673ffffffffffffffffffffffffffffffffffffffff168152602001806020018281038252838181546001816001161561010002031660029004815260200191508054600181600116156101000203166002900480156105fa5780601f106105cf576101008083540402835291602001916105fa565b820191906000526020600020905b8154815290600101906020018083116105dd57829003601f168201915b5050935050505060405180910390a190565b60056020528060005260406000206000915090508054600181600116156101000203166002900480601f0160208091040260200160405190810160405280929190818152602001828054600181600116156101000203166002900480156106b45780601f10610689576101008083540402835291602001916106b4565b820191906000526020600020905b81548152906001019060200180831161069757829003601f168201915b505050505081565b3373ffffffffffffffffffffffffffffffffffffffff16600260009054906101000a900473ffffffffffffffffffffffffffffffffffffffff1673ffffffffffffffffffffffffffffffffffffffff161461077f576040517f08c379a000000000000000000000000000000000000000000000000000000000815260040180806020018281038252601d8152602001807f63757272656e745f61646472657373206973206e6f742073656e64657200000081525060200191505060405180910390fd5b80600560006001600081548092919060010191905055815260200190815260200160002090805190602001906107b6929190610a90565b5080600090805190602001906107cd929190610a90565b506000600260006101000a81548173ffffffffffffffffffffffffffffffffffffffff021916908373ffffffffffffffffffffffffffffffffffffffff16021790555060006003819055506001600460006101000a81548160ff02191690831515021790555050565b600260009054906101000a900473ffffffffffffffffffffffffffffffffffffffff1681565b60008054600181600116156101000203166002900480601f0160208091040260200160405190810160405280929190818152602001828054600181600116156101000203166002900480156108f25780601f106108c7576101008083540402835291602001916108f2565b820191906000526020600020905b8154815290600101906020018083116108d557829003601f168201915b505050505081565b60015481565b60006003541180156109165750601e6003544203115b156109685733600260006101000a81548173ffffffffffffffffffffffffffffffffffffffff021916908373ffffffffffffffffffffffffffffffffffffffff16021790555042600381905550610a75565b600073ffffffffffffffffffffffffffffffffffffffff16600260009054906101000a900473ffffffffffffffffffffffffffffffffffffffff1673ffffffffffffffffffffffffffffffffffffffff1614610a2c576040517f08c379a00000000000000000000000000000000000000000000000000000000081526004018080602001828103825260188152602001807f63757272656e745f61646472657373206e6f74206e756c6c000000000000000081525060200191505060405180910390fd5b33600260006101000a81548173ffffffffffffffffffffffffffffffffffffffff021916908373ffffffffffffffffffffffffffffffffffffffff160217905550426003819055505b565b60035481565b600460009054906101000a900460ff1681565b828054600181600116156101000203166002900490600052602060002090601f016020900481019282601f10610ad157805160ff1916838001178555610aff565b82800160010185558215610aff579182015b82811115610afe578251825591602001919060010190610ae3565b5b509050610b0c9190610b10565b5090565b610b3291905b80821115610b2e576000816000905550600101610b16565b5090565b9056fea265627a7a7231582003a9ee2f7747ce9a9f2d4c5917592f90875451e3c0fded684bb124eed044e98e64736f6c63430005100032",
  "source": "pragma solidity ^0.5.16;\n\ncontract Chainmessage {\n    string public last_message;\n    uint256 public messageid;\n    address public current_address;\n    uint256 public lock_date;\n    bool public watchable = true;\n\n    mapping(uint256 => string) public messages;\n\n    function unlock() public {\n        if (lock_date > 0 && block.timestamp - lock_date > 30) {\n            current_address = msg.sender;\n            lock_date = block.timestamp;\n        } else {\n            require(\n                current_address == 0x0000000000000000000000000000000000000000,\n                \"current_address not null\"\n            );\n            current_address = msg.sender;\n            lock_date = block.timestamp;\n        }\n    }\n\n    event print_message(address sender, string last_message);\n\n    function get_last_message() public returns (string memory) {\n        require(current_address == msg.sender, \"current_address is not sender\");\n        require(watchable == true, \"cannot watch\");\n        watchable = false;\n        emit print_message(msg.sender, last_message);\n    }\n\n    function createMessage(string memory text) public {\n        require(current_address == msg.sender, \"current_address is not sender\");\n        messages[messageid++] = text;\n        last_message = text;\n        current_address = 0x0000000000000000000000000000000000000000;\n        lock_date = 0;\n        watchable = true;\n    }\n}\n",
  "sourcePath": "/Users/rodolphepoon/Documents/perso/dairbnb/contracts/Chainmessage.sol",
  "compiler": {
    "name": "solc",
    "version": "0.5.16+commit.9c3226ce.Emscripten.clang"
  },
  "schemaVersion": "3.4.8",
  "updatedAt": "2022-07-13T23:09:48.249Z",
  "networkType": "ethereum",
  "devdoc": {
    "methods": {}
  },
  "userdoc": {
    "methods": {}
  }
}