{
  "contractName": "Chainmessage",
  "abi": [
    {
      "inputs": [],
      "stateMutability": "nonpayable",
      "type": "constructor"
    },
    {
      "anonymous": false,
      "inputs": [
        {
          "indexed": true,
          "internalType": "address",
          "name": "owner",
          "type": "address"
        },
        {
          "indexed": true,
          "internalType": "address",
          "name": "approved",
          "type": "address"
        },
        {
          "indexed": true,
          "internalType": "uint256",
          "name": "tokenId",
          "type": "uint256"
        }
      ],
      "name": "Approval",
      "type": "event"
    },
    {
      "anonymous": false,
      "inputs": [
        {
          "indexed": true,
          "internalType": "address",
          "name": "owner",
          "type": "address"
        },
        {
          "indexed": true,
          "internalType": "address",
          "name": "operator",
          "type": "address"
        },
        {
          "indexed": false,
          "internalType": "bool",
          "name": "approved",
          "type": "bool"
        }
      ],
      "name": "ApprovalForAll",
      "type": "event"
    },
    {
      "anonymous": false,
      "inputs": [
        {
          "indexed": true,
          "internalType": "address",
          "name": "from",
          "type": "address"
        },
        {
          "indexed": true,
          "internalType": "address",
          "name": "to",
          "type": "address"
        },
        {
          "indexed": true,
          "internalType": "uint256",
          "name": "tokenId",
          "type": "uint256"
        }
      ],
      "name": "Transfer",
      "type": "event"
    },
    {
      "anonymous": false,
      "inputs": [
        {
          "indexed": false,
          "internalType": "address",
          "name": "sender",
          "type": "address"
        },
        {
          "indexed": false,
          "internalType": "string",
          "name": "last_message",
          "type": "string"
        }
      ],
      "name": "print_message",
      "type": "event"
    },
    {
      "inputs": [
        {
          "internalType": "address",
          "name": "to",
          "type": "address"
        },
        {
          "internalType": "uint256",
          "name": "tokenId",
          "type": "uint256"
        }
      ],
      "name": "approve",
      "outputs": [],
      "stateMutability": "nonpayable",
      "type": "function"
    },
    {
      "inputs": [
        {
          "internalType": "address",
          "name": "owner",
          "type": "address"
        }
      ],
      "name": "balanceOf",
      "outputs": [
        {
          "internalType": "uint256",
          "name": "",
          "type": "uint256"
        }
      ],
      "stateMutability": "view",
      "type": "function",
      "constant": true
    },
    {
      "inputs": [],
      "name": "current_address",
      "outputs": [
        {
          "internalType": "address",
          "name": "",
          "type": "address"
        }
      ],
      "stateMutability": "view",
      "type": "function",
      "constant": true
    },
    {
      "inputs": [
        {
          "internalType": "uint256",
          "name": "tokenId",
          "type": "uint256"
        }
      ],
      "name": "getApproved",
      "outputs": [
        {
          "internalType": "address",
          "name": "",
          "type": "address"
        }
      ],
      "stateMutability": "view",
      "type": "function",
      "constant": true
    },
    {
      "inputs": [
        {
          "internalType": "address",
          "name": "owner",
          "type": "address"
        },
        {
          "internalType": "address",
          "name": "operator",
          "type": "address"
        }
      ],
      "name": "isApprovedForAll",
      "outputs": [
        {
          "internalType": "bool",
          "name": "",
          "type": "bool"
        }
      ],
      "stateMutability": "view",
      "type": "function",
      "constant": true
    },
    {
      "inputs": [],
      "name": "last_message",
      "outputs": [
        {
          "internalType": "string",
          "name": "",
          "type": "string"
        }
      ],
      "stateMutability": "view",
      "type": "function",
      "constant": true
    },
    {
      "inputs": [],
      "name": "lock_date",
      "outputs": [
        {
          "internalType": "uint256",
          "name": "",
          "type": "uint256"
        }
      ],
      "stateMutability": "view",
      "type": "function",
      "constant": true
    },
    {
      "inputs": [],
      "name": "messageid",
      "outputs": [
        {
          "internalType": "uint256",
          "name": "",
          "type": "uint256"
        }
      ],
      "stateMutability": "view",
      "type": "function",
      "constant": true
    },
    {
      "inputs": [
        {
          "internalType": "uint256",
          "name": "",
          "type": "uint256"
        }
      ],
      "name": "messages",
      "outputs": [
        {
          "internalType": "string",
          "name": "text",
          "type": "string"
        },
        {
          "internalType": "address",
          "name": "author",
          "type": "address"
        }
      ],
      "stateMutability": "view",
      "type": "function",
      "constant": true
    },
    {
      "inputs": [],
      "name": "name",
      "outputs": [
        {
          "internalType": "string",
          "name": "",
          "type": "string"
        }
      ],
      "stateMutability": "view",
      "type": "function",
      "constant": true
    },
    {
      "inputs": [
        {
          "internalType": "uint256",
          "name": "tokenId",
          "type": "uint256"
        }
      ],
      "name": "ownerOf",
      "outputs": [
        {
          "internalType": "address",
          "name": "",
          "type": "address"
        }
      ],
      "stateMutability": "view",
      "type": "function",
      "constant": true
    },
    {
      "inputs": [
        {
          "internalType": "address",
          "name": "from",
          "type": "address"
        },
        {
          "internalType": "address",
          "name": "to",
          "type": "address"
        },
        {
          "internalType": "uint256",
          "name": "tokenId",
          "type": "uint256"
        }
      ],
      "name": "safeTransferFrom",
      "outputs": [],
      "stateMutability": "nonpayable",
      "type": "function"
    },
    {
      "inputs": [
        {
          "internalType": "address",
          "name": "from",
          "type": "address"
        },
        {
          "internalType": "address",
          "name": "to",
          "type": "address"
        },
        {
          "internalType": "uint256",
          "name": "tokenId",
          "type": "uint256"
        },
        {
          "internalType": "bytes",
          "name": "data",
          "type": "bytes"
        }
      ],
      "name": "safeTransferFrom",
      "outputs": [],
      "stateMutability": "nonpayable",
      "type": "function"
    },
    {
      "inputs": [
        {
          "internalType": "address",
          "name": "operator",
          "type": "address"
        },
        {
          "internalType": "bool",
          "name": "approved",
          "type": "bool"
        }
      ],
      "name": "setApprovalForAll",
      "outputs": [],
      "stateMutability": "nonpayable",
      "type": "function"
    },
    {
      "inputs": [
        {
          "internalType": "bytes4",
          "name": "interfaceId",
          "type": "bytes4"
        }
      ],
      "name": "supportsInterface",
      "outputs": [
        {
          "internalType": "bool",
          "name": "",
          "type": "bool"
        }
      ],
      "stateMutability": "view",
      "type": "function",
      "constant": true
    },
    {
      "inputs": [],
      "name": "symbol",
      "outputs": [
        {
          "internalType": "string",
          "name": "",
          "type": "string"
        }
      ],
      "stateMutability": "view",
      "type": "function",
      "constant": true
    },
    {
      "inputs": [],
      "name": "tokenId",
      "outputs": [
        {
          "internalType": "uint256",
          "name": "",
          "type": "uint256"
        }
      ],
      "stateMutability": "view",
      "type": "function",
      "constant": true
    },
    {
      "inputs": [
        {
          "internalType": "uint256",
          "name": "tokenId",
          "type": "uint256"
        }
      ],
      "name": "tokenURI",
      "outputs": [
        {
          "internalType": "string",
          "name": "",
          "type": "string"
        }
      ],
      "stateMutability": "view",
      "type": "function",
      "constant": true
    },
    {
      "inputs": [
        {
          "internalType": "address",
          "name": "from",
          "type": "address"
        },
        {
          "internalType": "address",
          "name": "to",
          "type": "address"
        },
        {
          "internalType": "uint256",
          "name": "tokenId",
          "type": "uint256"
        }
      ],
      "name": "transferFrom",
      "outputs": [],
      "stateMutability": "nonpayable",
      "type": "function"
    },
    {
      "inputs": [],
      "name": "watchable",
      "outputs": [
        {
          "internalType": "bool",
          "name": "",
          "type": "bool"
        }
      ],
      "stateMutability": "view",
      "type": "function",
      "constant": true
    },
    {
      "inputs": [],
      "name": "safeMint",
      "outputs": [],
      "stateMutability": "nonpayable",
      "type": "function"
    },
    {
      "inputs": [],
      "name": "unlock",
      "outputs": [],
      "stateMutability": "nonpayable",
      "type": "function"
    },
    {
      "inputs": [],
      "name": "get_last_message",
      "outputs": [
        {
          "internalType": "string",
          "name": "",
          "type": "string"
        }
      ],
      "stateMutability": "nonpayable",
      "type": "function"
    },
    {
      "inputs": [
        {
          "internalType": "string",
          "name": "text",
          "type": "string"
        }
      ],
      "name": "createMessage",
      "outputs": [],
      "stateMutability": "nonpayable",
      "type": "function"
    }
  ],
  "bytecode": "0x60806040526001600c60006101000a81548160ff0219169083151502179055503480156200002c57600080fd5b506040518060400160405280600581526020017f4861696b750000000000000000000000000000000000000000000000000000008152506040518060400160405280600581526020017f4861696b750000000000000000000000000000000000000000000000000000008152508160009080519060200190620000b1929190620000d3565b508060019080519060200190620000ca929190620000d3565b505050620001e7565b828054620000e190620001b2565b90600052602060002090601f01602090048101928262000105576000855562000151565b82601f106200012057805160ff191683800117855562000151565b8280016001018555821562000151579182015b828111156200015057825182559160200191906001019062000133565b5b50905062000160919062000164565b5090565b5b808211156200017f57600081600090555060010162000165565b5090565b7f4e487b7100000000000000000000000000000000000000000000000000000000600052602260045260246000fd5b60006002820490506001821680620001cb57607f821691505b602082108103620001e157620001e062000183565b5b50919050565b61359c80620001f76000396000f3fe608060405234801561001057600080fd5b50600436106101585760003560e01c80636871ee40116100c3578063a69df4b51161007c578063a69df4b5146103b6578063b88d4fde146103c0578063c87b56dd146103dc578063e985e9c51461040c578063efa707611461043c578063eff2e0871461045a57610158565b80636871ee401461030657806370a082311461031057806381fb30701461034057806395d89b411461035e578063a16a59d71461037c578063a22cb4651461039a57610158565b806317d70f7c1161011557806317d70f7c14610246578063198a2de9146102645780631e1deb331461028057806323b872dd1461029e57806342842e0e146102ba5780636352211e146102d657610158565b806301ffc9a71461015d57806306fdde031461018d578063081812fc146101ab578063089b12f4146101db578063095ea7b3146101f95780630d80fefd14610215575b600080fd5b610177600480360381019061017291906121a5565b610478565b60405161018491906121ed565b60405180910390f35b61019561055a565b6040516101a291906122a1565b60405180910390f35b6101c560048036038101906101c091906122f9565b6105ec565b6040516101d29190612367565b60405180910390f35b6101e3610632565b6040516101f091906122a1565b60405180910390f35b610213600480360381019061020e91906123ae565b6107ff565b005b61022f600480360381019061022a91906122f9565b610916565b60405161023d9291906123ee565b60405180910390f35b61024e6109e2565b60405161025b919061242d565b60405180910390f35b61027e6004803603810190610279919061257d565b6109e8565b005b610288610b28565b6040516102959190612367565b60405180910390f35b6102b860048036038101906102b391906125c6565b610b4e565b005b6102d460048036038101906102cf91906125c6565b610bae565b005b6102f060048036038101906102eb91906122f9565b610bce565b6040516102fd9190612367565b60405180910390f35b61030e610c7f565b005b61032a60048036038101906103259190612619565b610e37565b604051610337919061242d565b60405180910390f35b610348610eee565b60405161035591906122a1565b60405180910390f35b610366610f7c565b60405161037391906122a1565b60405180910390f35b61038461100e565b604051610391919061242d565b60405180910390f35b6103b460048036038101906103af9190612672565b611014565b005b6103be61102a565b005b6103da60048036038101906103d59190612753565b611177565b005b6103f660048036038101906103f191906122f9565b6111d9565b60405161040391906122a1565b60405180910390f35b610426600480360381019061042191906127d6565b6112eb565b60405161043391906121ed565b60405180910390f35b61044461137f565b604051610451919061242d565b60405180910390f35b610462611385565b60405161046f91906121ed565b60405180910390f35b60007f80ac58cd000000000000000000000000000000000000000000000000000000007bffffffffffffffffffffffffffffffffffffffffffffffffffffffff1916827bffffffffffffffffffffffffffffffffffffffffffffffffffffffff1916148061054357507f5b5e139f000000000000000000000000000000000000000000000000000000007bffffffffffffffffffffffffffffffffffffffffffffffffffffffff1916827bffffffffffffffffffffffffffffffffffffffffffffffffffffffff1916145b80610553575061055282611398565b5b9050919050565b60606000805461056990612845565b80601f016020809104026020016040519081016040528092919081815260200182805461059590612845565b80156105e25780601f106105b7576101008083540402835291602001916105e2565b820191906000526020600020905b8154815290600101906020018083116105c557829003601f168201915b5050505050905090565b60006105f782611402565b6004600083815260200190815260200160002060009054906101000a900473ffffffffffffffffffffffffffffffffffffffff169050919050565b60603373ffffffffffffffffffffffffffffffffffffffff16600a60009054906101000a900473ffffffffffffffffffffffffffffffffffffffff1673ffffffffffffffffffffffffffffffffffffffff16146106c4576040517f08c379a00000000000000000000000000000000000000000000000000000000081526004016106bb906128c2565b60405180910390fd5b60011515600c60009054906101000a900460ff1615151461071a576040517f08c379a00000000000000000000000000000000000000000000000000000000081526004016107119061292e565b60405180910390fd5b6000600c60006101000a81548160ff0219169083151502179055507f4fb64101eb16e6faf4baf7819ad3855628dbb64d7a8da4956413c211b368afb43360086040516107679291906129e3565b60405180910390a16008805461077c90612845565b80601f01602080910402602001604051908101604052809291908181526020018280546107a890612845565b80156107f55780601f106107ca576101008083540402835291602001916107f5565b820191906000526020600020905b8154815290600101906020018083116107d857829003601f168201915b5050505050905090565b600061080a82610bce565b90508073ffffffffffffffffffffffffffffffffffffffff168373ffffffffffffffffffffffffffffffffffffffff160361087a576040517f08c379a000000000000000000000000000000000000000000000000000000000815260040161087190612a85565b60405180910390fd5b8073ffffffffffffffffffffffffffffffffffffffff1661089961144d565b73ffffffffffffffffffffffffffffffffffffffff1614806108c857506108c7816108c261144d565b6112eb565b5b610907576040517f08c379a00000000000000000000000000000000000000000000000000000000081526004016108fe90612b17565b60405180910390fd5b6109118383611455565b505050565b600d60205280600052604060002060009150905080600001805461093990612845565b80601f016020809104026020016040519081016040528092919081815260200182805461096590612845565b80156109b25780601f10610987576101008083540402835291602001916109b2565b820191906000526020600020905b81548152906001019060200180831161099557829003601f168201915b5050505050908060010160009054906101000a900473ffffffffffffffffffffffffffffffffffffffff16905082565b60075481565b600060405180604001604052808381526020013373ffffffffffffffffffffffffffffffffffffffff16815250905080600d600060096000815480929190610a2f90612b66565b9190505581526020019081526020016000206000820151816000019080519060200190610a5d929190612096565b5060208201518160010160006101000a81548173ffffffffffffffffffffffffffffffffffffffff021916908373ffffffffffffffffffffffffffffffffffffffff1602179055509050508160089080519060200190610abe929190612096565b506000600a60006101000a81548173ffffffffffffffffffffffffffffffffffffffff021916908373ffffffffffffffffffffffffffffffffffffffff1602179055506000600b819055506001600c60006101000a81548160ff0219169083151502179055505050565b600a60009054906101000a900473ffffffffffffffffffffffffffffffffffffffff1681565b610b5f610b5961144d565b8261150e565b610b9e576040517f08c379a0000000000000000000000000000000000000000000000000000000008152600401610b9590612c20565b60405180910390fd5b610ba98383836115a3565b505050565b610bc983838360405180602001604052806000815250611177565b505050565b6000806002600084815260200190815260200160002060009054906101000a900473ffffffffffffffffffffffffffffffffffffffff169050600073ffffffffffffffffffffffffffffffffffffffff168173ffffffffffffffffffffffffffffffffffffffff1603610c76576040517f08c379a0000000000000000000000000000000000000000000000000000000008152600401610c6d90612c8c565b60405180910390fd5b80915050919050565b600060076000815480929190610c9490612b66565b919050559050600060095490506002811015610ce5576040517f08c379a0000000000000000000000000000000000000000000000000000000008152600401610cdc90612cf8565b60405180910390fd5b6000600d6000600384610cf89190612d18565b815260200190815260200160002090506000600d6000600285610d1b9190612d18565b815260200190815260200160002090506000600d6000600186610d3e9190612d18565b8152602001908152602001600020905060006040518060200160405280600081525090508084600001604051602001610d78929190612e07565b604051602081830303815290604052905080604051602001610d9a9190612e77565b60405160208183030381529060405290508083600001604051602001610dc1929190612e07565b604051602081830303815290604052905080604051602001610de39190612e77565b60405160208183030381529060405290508082600001604051602001610e0a929190612e07565b6040516020818303038152906040529050610e253387611809565b610e2f8682611827565b505050505050565b60008073ffffffffffffffffffffffffffffffffffffffff168273ffffffffffffffffffffffffffffffffffffffff1603610ea7576040517f08c379a0000000000000000000000000000000000000000000000000000000008152600401610e9e90612f0b565b60405180910390fd5b600360008373ffffffffffffffffffffffffffffffffffffffff1673ffffffffffffffffffffffffffffffffffffffff168152602001908152602001600020549050919050565b60088054610efb90612845565b80601f0160208091040260200160405190810160405280929190818152602001828054610f2790612845565b8015610f745780601f10610f4957610100808354040283529160200191610f74565b820191906000526020600020905b815481529060010190602001808311610f5757829003601f168201915b505050505081565b606060018054610f8b90612845565b80601f0160208091040260200160405190810160405280929190818152602001828054610fb790612845565b80156110045780601f10610fd957610100808354040283529160200191611004565b820191906000526020600020905b815481529060010190602001808311610fe757829003601f168201915b5050505050905090565b60095481565b61102661101f61144d565b838361189b565b5050565b6000600b541180156110495750601e600b54426110479190612d18565b115b1561109b5733600a60006101000a81548173ffffffffffffffffffffffffffffffffffffffff021916908373ffffffffffffffffffffffffffffffffffffffff16021790555042600b81905550611175565b600073ffffffffffffffffffffffffffffffffffffffff16600a60009054906101000a900473ffffffffffffffffffffffffffffffffffffffff1673ffffffffffffffffffffffffffffffffffffffff161461112c576040517f08c379a000000000000000000000000000000000000000000000000000000000815260040161112390612f9d565b60405180910390fd5b33600a60006101000a81548173ffffffffffffffffffffffffffffffffffffffff021916908373ffffffffffffffffffffffffffffffffffffffff16021790555042600b819055505b565b61118861118261144d565b8361150e565b6111c7576040517f08c379a00000000000000000000000000000000000000000000000000000000081526004016111be90612c20565b60405180910390fd5b6111d384848484611a07565b50505050565b60606111e482611402565b600060066000848152602001908152602001600020805461120490612845565b80601f016020809104026020016040519081016040528092919081815260200182805461123090612845565b801561127d5780601f106112525761010080835404028352916020019161127d565b820191906000526020600020905b81548152906001019060200180831161126057829003601f168201915b50505050509050600061128e611a63565b905060008151036112a35781925050506112e6565b6000825111156112d85780826040516020016112c0929190612fbd565b604051602081830303815290604052925050506112e6565b6112e184611a7a565b925050505b919050565b6000600560008473ffffffffffffffffffffffffffffffffffffffff1673ffffffffffffffffffffffffffffffffffffffff16815260200190815260200160002060008373ffffffffffffffffffffffffffffffffffffffff1673ffffffffffffffffffffffffffffffffffffffff16815260200190815260200160002060009054906101000a900460ff16905092915050565b600b5481565b600c60009054906101000a900460ff1681565b60007f01ffc9a7000000000000000000000000000000000000000000000000000000007bffffffffffffffffffffffffffffffffffffffffffffffffffffffff1916827bffffffffffffffffffffffffffffffffffffffffffffffffffffffff1916149050919050565b61140b81611ae2565b61144a576040517f08c379a000000000000000000000000000000000000000000000000000000000815260040161144190612c8c565b60405180910390fd5b50565b600033905090565b816004600083815260200190815260200160002060006101000a81548173ffffffffffffffffffffffffffffffffffffffff021916908373ffffffffffffffffffffffffffffffffffffffff160217905550808273ffffffffffffffffffffffffffffffffffffffff166114c883610bce565b73ffffffffffffffffffffffffffffffffffffffff167f8c5be1e5ebec7d5bd14f71427d1e84f3dd0314c0f7b2291e5b200ac8c7c3b92560405160405180910390a45050565b60008061151a83610bce565b90508073ffffffffffffffffffffffffffffffffffffffff168473ffffffffffffffffffffffffffffffffffffffff16148061155c575061155b81856112eb565b5b8061159a57508373ffffffffffffffffffffffffffffffffffffffff16611582846105ec565b73ffffffffffffffffffffffffffffffffffffffff16145b91505092915050565b8273ffffffffffffffffffffffffffffffffffffffff166115c382610bce565b73ffffffffffffffffffffffffffffffffffffffff1614611619576040517f08c379a000000000000000000000000000000000000000000000000000000000815260040161161090613053565b60405180910390fd5b600073ffffffffffffffffffffffffffffffffffffffff168273ffffffffffffffffffffffffffffffffffffffff1603611688576040517f08c379a000000000000000000000000000000000000000000000000000000000815260040161167f906130e5565b60405180910390fd5b611693838383611b4e565b61169e600082611455565b6001600360008573ffffffffffffffffffffffffffffffffffffffff1673ffffffffffffffffffffffffffffffffffffffff16815260200190815260200160002060008282546116ee9190612d18565b925050819055506001600360008473ffffffffffffffffffffffffffffffffffffffff1673ffffffffffffffffffffffffffffffffffffffff16815260200190815260200160002060008282546117459190613105565b92505081905550816002600083815260200190815260200160002060006101000a81548173ffffffffffffffffffffffffffffffffffffffff021916908373ffffffffffffffffffffffffffffffffffffffff160217905550808273ffffffffffffffffffffffffffffffffffffffff168473ffffffffffffffffffffffffffffffffffffffff167fddf252ad1be2c89b69c2b068fc378daa952ba7f163c4a11628f55a4df523b3ef60405160405180910390a4611804838383611b53565b505050565b611823828260405180602001604052806000815250611b58565b5050565b61183082611ae2565b61186f576040517f08c379a0000000000000000000000000000000000000000000000000000000008152600401611866906131cd565b60405180910390fd5b80600660008481526020019081526020016000209080519060200190611896929190612096565b505050565b8173ffffffffffffffffffffffffffffffffffffffff168373ffffffffffffffffffffffffffffffffffffffff1603611909576040517f08c379a000000000000000000000000000000000000000000000000000000000815260040161190090613239565b60405180910390fd5b80600560008573ffffffffffffffffffffffffffffffffffffffff1673ffffffffffffffffffffffffffffffffffffffff16815260200190815260200160002060008473ffffffffffffffffffffffffffffffffffffffff1673ffffffffffffffffffffffffffffffffffffffff16815260200190815260200160002060006101000a81548160ff0219169083151502179055508173ffffffffffffffffffffffffffffffffffffffff168373ffffffffffffffffffffffffffffffffffffffff167f17307eab39ab6107e8899845ad3d59bd9653f200f220920489ca2b5937696c31836040516119fa91906121ed565b60405180910390a3505050565b611a128484846115a3565b611a1e84848484611bb3565b611a5d576040517f08c379a0000000000000000000000000000000000000000000000000000000008152600401611a54906132cb565b60405180910390fd5b50505050565b606060405180602001604052806000815250905090565b6060611a8582611402565b6000611a8f611a63565b90506000815111611aaf5760405180602001604052806000815250611ada565b80611ab984611d3a565b604051602001611aca929190612fbd565b6040516020818303038152906040525b915050919050565b60008073ffffffffffffffffffffffffffffffffffffffff166002600084815260200190815260200160002060009054906101000a900473ffffffffffffffffffffffffffffffffffffffff1673ffffffffffffffffffffffffffffffffffffffff1614159050919050565b505050565b505050565b611b628383611e9a565b611b6f6000848484611bb3565b611bae576040517f08c379a0000000000000000000000000000000000000000000000000000000008152600401611ba5906132cb565b60405180910390fd5b505050565b6000611bd48473ffffffffffffffffffffffffffffffffffffffff16612073565b15611d2d578373ffffffffffffffffffffffffffffffffffffffff1663150b7a02611bfd61144d565b8786866040518563ffffffff1660e01b8152600401611c1f9493929190613340565b6020604051808303816000875af1925050508015611c5b57506040513d601f19601f82011682018060405250810190611c5891906133a1565b60015b611cdd573d8060008114611c8b576040519150601f19603f3d011682016040523d82523d6000602084013e611c90565b606091505b506000815103611cd5576040517f08c379a0000000000000000000000000000000000000000000000000000000008152600401611ccc906132cb565b60405180910390fd5b805181602001fd5b63150b7a0260e01b7bffffffffffffffffffffffffffffffffffffffffffffffffffffffff1916817bffffffffffffffffffffffffffffffffffffffffffffffffffffffff191614915050611d32565b600190505b949350505050565b606060008203611d81576040518060400160405280600181526020017f30000000000000000000000000000000000000000000000000000000000000008152509050611e95565b600082905060005b60008214611db3578080611d9c90612b66565b915050600a82611dac91906133fd565b9150611d89565b60008167ffffffffffffffff811115611dcf57611dce612452565b5b6040519080825280601f01601f191660200182016040528015611e015781602001600182028036833780820191505090505b5090505b60008514611e8e57600182611e1a9190612d18565b9150600a85611e29919061342e565b6030611e359190613105565b60f81b818381518110611e4b57611e4a61345f565b5b60200101907effffffffffffffffffffffffffffffffffffffffffffffffffffffffffffff1916908160001a905350600a85611e8791906133fd565b9450611e05565b8093505050505b919050565b600073ffffffffffffffffffffffffffffffffffffffff168273ffffffffffffffffffffffffffffffffffffffff1603611f09576040517f08c379a0000000000000000000000000000000000000000000000000000000008152600401611f00906134da565b60405180910390fd5b611f1281611ae2565b15611f52576040517f08c379a0000000000000000000000000000000000000000000000000000000008152600401611f4990613546565b60405180910390fd5b611f5e60008383611b4e565b6001600360008473ffffffffffffffffffffffffffffffffffffffff1673ffffffffffffffffffffffffffffffffffffffff1681526020019081526020016000206000828254611fae9190613105565b92505081905550816002600083815260200190815260200160002060006101000a81548173ffffffffffffffffffffffffffffffffffffffff021916908373ffffffffffffffffffffffffffffffffffffffff160217905550808273ffffffffffffffffffffffffffffffffffffffff16600073ffffffffffffffffffffffffffffffffffffffff167fddf252ad1be2c89b69c2b068fc378daa952ba7f163c4a11628f55a4df523b3ef60405160405180910390a461206f60008383611b53565b5050565b6000808273ffffffffffffffffffffffffffffffffffffffff163b119050919050565b8280546120a290612845565b90600052602060002090601f0160209004810192826120c4576000855561210b565b82601f106120dd57805160ff191683800117855561210b565b8280016001018555821561210b579182015b8281111561210a5782518255916020019190600101906120ef565b5b509050612118919061211c565b5090565b5b8082111561213557600081600090555060010161211d565b5090565b6000604051905090565b600080fd5b600080fd5b60007fffffffff0000000000000000000000000000000000000000000000000000000082169050919050565b6121828161214d565b811461218d57600080fd5b50565b60008135905061219f81612179565b92915050565b6000602082840312156121bb576121ba612143565b5b60006121c984828501612190565b91505092915050565b60008115159050919050565b6121e7816121d2565b82525050565b600060208201905061220260008301846121de565b92915050565b600081519050919050565b600082825260208201905092915050565b60005b83811015612242578082015181840152602081019050612227565b83811115612251576000848401525b50505050565b6000601f19601f8301169050919050565b600061227382612208565b61227d8185612213565b935061228d818560208601612224565b61229681612257565b840191505092915050565b600060208201905081810360008301526122bb8184612268565b905092915050565b6000819050919050565b6122d6816122c3565b81146122e157600080fd5b50565b6000813590506122f3816122cd565b92915050565b60006020828403121561230f5761230e612143565b5b600061231d848285016122e4565b91505092915050565b600073ffffffffffffffffffffffffffffffffffffffff82169050919050565b600061235182612326565b9050919050565b61236181612346565b82525050565b600060208201905061237c6000830184612358565b92915050565b61238b81612346565b811461239657600080fd5b50565b6000813590506123a881612382565b92915050565b600080604083850312156123c5576123c4612143565b5b60006123d385828601612399565b92505060206123e4858286016122e4565b9150509250929050565b600060408201905081810360008301526124088185612268565b90506124176020830184612358565b9392505050565b612427816122c3565b82525050565b6000602082019050612442600083018461241e565b92915050565b600080fd5b600080fd5b7f4e487b7100000000000000000000000000000000000000000000000000000000600052604160045260246000fd5b61248a82612257565b810181811067ffffffffffffffff821117156124a9576124a8612452565b5b80604052505050565b60006124bc612139565b90506124c88282612481565b919050565b600067ffffffffffffffff8211156124e8576124e7612452565b5b6124f182612257565b9050602081019050919050565b82818337600083830152505050565b600061252061251b846124cd565b6124b2565b90508281526020810184848401111561253c5761253b61244d565b5b6125478482856124fe565b509392505050565b600082601f83011261256457612563612448565b5b813561257484826020860161250d565b91505092915050565b60006020828403121561259357612592612143565b5b600082013567ffffffffffffffff8111156125b1576125b0612148565b5b6125bd8482850161254f565b91505092915050565b6000806000606084860312156125df576125de612143565b5b60006125ed86828701612399565b93505060206125fe86828701612399565b925050604061260f868287016122e4565b9150509250925092565b60006020828403121561262f5761262e612143565b5b600061263d84828501612399565b91505092915050565b61264f816121d2565b811461265a57600080fd5b50565b60008135905061266c81612646565b92915050565b6000806040838503121561268957612688612143565b5b600061269785828601612399565b92505060206126a88582860161265d565b9150509250929050565b600067ffffffffffffffff8211156126cd576126cc612452565b5b6126d682612257565b9050602081019050919050565b60006126f66126f1846126b2565b6124b2565b9050828152602081018484840111156127125761271161244d565b5b61271d8482856124fe565b509392505050565b600082601f83011261273a57612739612448565b5b813561274a8482602086016126e3565b91505092915050565b6000806000806080858703121561276d5761276c612143565b5b600061277b87828801612399565b945050602061278c87828801612399565b935050604061279d878288016122e4565b925050606085013567ffffffffffffffff8111156127be576127bd612148565b5b6127ca87828801612725565b91505092959194509250565b600080604083850312156127ed576127ec612143565b5b60006127fb85828601612399565b925050602061280c85828601612399565b9150509250929050565b7f4e487b7100000000000000000000000000000000000000000000000000000000600052602260045260246000fd5b6000600282049050600182168061285d57607f821691505b6020821081036128705761286f612816565b5b50919050565b7f63757272656e745f61646472657373206973206e6f742073656e646572000000600082015250565b60006128ac601d83612213565b91506128b782612876565b602082019050919050565b600060208201905081810360008301526128db8161289f565b9050919050565b7f63616e6e6f742077617463680000000000000000000000000000000000000000600082015250565b6000612918600c83612213565b9150612923826128e2565b602082019050919050565b600060208201905081810360008301526129478161290b565b9050919050565b60008190508160005260206000209050919050565b6000815461297081612845565b61297a8186612213565b9450600182166000811461299557600181146129a7576129da565b60ff19831686526020860193506129da565b6129b08561294e565b60005b838110156129d2578154818901526001820191506020810190506129b3565b808801955050505b50505092915050565b60006040820190506129f86000830185612358565b8181036020830152612a0a8184612963565b90509392505050565b7f4552433732313a20617070726f76616c20746f2063757272656e74206f776e6560008201527f7200000000000000000000000000000000000000000000000000000000000000602082015250565b6000612a6f602183612213565b9150612a7a82612a13565b604082019050919050565b60006020820190508181036000830152612a9e81612a62565b9050919050565b7f4552433732313a20617070726f76652063616c6c6572206973206e6f7420746f60008201527f6b656e206f776e6572206e6f7220617070726f76656420666f7220616c6c0000602082015250565b6000612b01603e83612213565b9150612b0c82612aa5565b604082019050919050565b60006020820190508181036000830152612b3081612af4565b9050919050565b7f4e487b7100000000000000000000000000000000000000000000000000000000600052601160045260246000fd5b6000612b71826122c3565b91507fffffffffffffffffffffffffffffffffffffffffffffffffffffffffffffffff8203612ba357612ba2612b37565b5b600182019050919050565b7f4552433732313a2063616c6c6572206973206e6f7420746f6b656e206f776e6560008201527f72206e6f7220617070726f766564000000000000000000000000000000000000602082015250565b6000612c0a602e83612213565b9150612c1582612bae565b604082019050919050565b60006020820190508181036000830152612c3981612bfd565b9050919050565b7f4552433732313a20696e76616c696420746f6b656e2049440000000000000000600082015250565b6000612c76601883612213565b9150612c8182612c40565b602082019050919050565b60006020820190508181036000830152612ca581612c69565b9050919050565b7f6e6f7420656e6f756768206d6573736167657300000000000000000000000000600082015250565b6000612ce2601383612213565b9150612ced82612cac565b602082019050919050565b60006020820190508181036000830152612d1181612cd5565b9050919050565b6000612d23826122c3565b9150612d2e836122c3565b925082821015612d4157612d40612b37565b5b828203905092915050565b600081905092915050565b6000612d6282612208565b612d6c8185612d4c565b9350612d7c818560208601612224565b80840191505092915050565b60008154612d9581612845565b612d9f8186612d4c565b94506001821660008114612dba5760018114612dcb57612dfe565b60ff19831686528186019350612dfe565b612dd48561294e565b60005b83811015612df657815481890152600182019150602081019050612dd7565b838801955050505b50505092915050565b6000612e138285612d57565b9150612e1f8284612d88565b91508190509392505050565b7f0a00000000000000000000000000000000000000000000000000000000000000600082015250565b6000612e61600183612d4c565b9150612e6c82612e2b565b600182019050919050565b6000612e838284612d57565b9150612e8e82612e54565b915081905092915050565b7f4552433732313a2061646472657373207a65726f206973206e6f74206120766160008201527f6c6964206f776e65720000000000000000000000000000000000000000000000602082015250565b6000612ef5602983612213565b9150612f0082612e99565b604082019050919050565b60006020820190508181036000830152612f2481612ee8565b9050919050565b7f63757272656e745f61646472657373206e6f74206e756c6c207472792061676160008201527f696e20696e203330207365636f6e647300000000000000000000000000000000602082015250565b6000612f87603083612213565b9150612f9282612f2b565b604082019050919050565b60006020820190508181036000830152612fb681612f7a565b9050919050565b6000612fc98285612d57565b9150612fd58284612d57565b91508190509392505050565b7f4552433732313a207472616e736665722066726f6d20696e636f72726563742060008201527f6f776e6572000000000000000000000000000000000000000000000000000000602082015250565b600061303d602583612213565b915061304882612fe1565b604082019050919050565b6000602082019050818103600083015261306c81613030565b9050919050565b7f4552433732313a207472616e7366657220746f20746865207a65726f2061646460008201527f7265737300000000000000000000000000000000000000000000000000000000602082015250565b60006130cf602483612213565b91506130da82613073565b604082019050919050565b600060208201905081810360008301526130fe816130c2565b9050919050565b6000613110826122c3565b915061311b836122c3565b9250827fffffffffffffffffffffffffffffffffffffffffffffffffffffffffffffffff038211156131505761314f612b37565b5b828201905092915050565b7f45524337323155524953746f726167653a2055524920736574206f66206e6f6e60008201527f6578697374656e7420746f6b656e000000000000000000000000000000000000602082015250565b60006131b7602e83612213565b91506131c28261315b565b604082019050919050565b600060208201905081810360008301526131e6816131aa565b9050919050565b7f4552433732313a20617070726f766520746f2063616c6c657200000000000000600082015250565b6000613223601983612213565b915061322e826131ed565b602082019050919050565b6000602082019050818103600083015261325281613216565b9050919050565b7f4552433732313a207472616e7366657220746f206e6f6e20455243373231526560008201527f63656976657220696d706c656d656e7465720000000000000000000000000000602082015250565b60006132b5603283612213565b91506132c082613259565b604082019050919050565b600060208201905081810360008301526132e4816132a8565b9050919050565b600081519050919050565b600082825260208201905092915050565b6000613312826132eb565b61331c81856132f6565b935061332c818560208601612224565b61333581612257565b840191505092915050565b60006080820190506133556000830187612358565b6133626020830186612358565b61336f604083018561241e565b81810360608301526133818184613307565b905095945050505050565b60008151905061339b81612179565b92915050565b6000602082840312156133b7576133b6612143565b5b60006133c58482850161338c565b91505092915050565b7f4e487b7100000000000000000000000000000000000000000000000000000000600052601260045260246000fd5b6000613408826122c3565b9150613413836122c3565b925082613423576134226133ce565b5b828204905092915050565b6000613439826122c3565b9150613444836122c3565b925082613454576134536133ce565b5b828206905092915050565b7f4e487b7100000000000000000000000000000000000000000000000000000000600052603260045260246000fd5b7f4552433732313a206d696e7420746f20746865207a65726f2061646472657373600082015250565b60006134c4602083612213565b91506134cf8261348e565b602082019050919050565b600060208201905081810360008301526134f3816134b7565b9050919050565b7f4552433732313a20746f6b656e20616c7265616479206d696e74656400000000600082015250565b6000613530601c83612213565b915061353b826134fa565b602082019050919050565b6000602082019050818103600083015261355f81613523565b905091905056fea2646970667358221220c984424173fc6b73698115c19c61558c25baa1d3e10565d2c2b9441b2778182964736f6c634300080e0033",
  "immutableReferences": {},
  "source": "// SPDX-License-Identifier: MIT\npragma solidity ^0.8.0;\n\nimport \"@openzeppelin/contracts/token/ERC721/extensions/ERC721URIStorage.sol\";\n\ncontract Chainmessage is ERC721URIStorage {\n    uint256 public tokenId;\n\n    struct Message {\n        string text;\n        address author;\n    }\n    string public last_message;\n    uint256 public messageid;\n    address public current_address;\n    uint256 public lock_date;\n    bool public watchable = true;\n    mapping(uint256 => Message) public messages;\n\n    constructor() ERC721(\"Haiku\", \"Haiku\") {}\n\n    function safeMint() public {\n        uint256 curr_tokenId = tokenId++;\n        uint256 curr_messageId = messageid;\n\n        require(curr_messageId >= 2, \"not enough messages\");\n\n        Message storage message_2 = messages[curr_messageId - 3];\n        Message storage message_1 = messages[curr_messageId - 2];\n        Message storage message_0 = messages[curr_messageId - 1];\n        string memory haiku = \"\";\n        haiku = string(abi.encodePacked(haiku, message_2.text));\n        haiku = string(abi.encodePacked(haiku, \"\\n\"));\n        haiku = string(abi.encodePacked(haiku, message_1.text));\n        haiku = string(abi.encodePacked(haiku, \"\\n\"));\n        haiku = string(abi.encodePacked(haiku, message_0.text));\n\n        _safeMint(msg.sender, curr_tokenId);\n        _setTokenURI(curr_tokenId, haiku);\n    }\n\n    function unlock() public {\n        if (lock_date > 0 && block.timestamp - lock_date > 30) {\n            current_address = msg.sender;\n            lock_date = block.timestamp;\n        } else {\n            require(\n                current_address == 0x0000000000000000000000000000000000000000,\n                \"current_address not null try again in 30 seconds\"\n            );\n            current_address = msg.sender;\n            lock_date = block.timestamp;\n        }\n    }\n\n    event print_message(address sender, string last_message);\n\n    function get_last_message() public returns (string memory) {\n        require(current_address == msg.sender, \"current_address is not sender\");\n        require(watchable == true, \"cannot watch\");\n        watchable = false;\n        emit print_message(msg.sender, last_message);\n        return last_message;\n    }\n\n    function createMessage(string memory text) public {\n        //require(current_address == msg.sender, \"current_address is not sender\");\n\n        Message memory message = Message(text, address(msg.sender));\n        messages[messageid++] = message;\n        last_message = text;\n        current_address = 0x0000000000000000000000000000000000000000;\n        lock_date = 0;\n        watchable = true;\n    }\n}\n",
  "sourcePath": "/Users/rodolphepoon/Documents/perso/dairbnb/contracts/Chainmessage.sol",
  "compiler": {
    "name": "solc",
    "version": "0.8.14+commit.80d49f37.Emscripten.clang"
  },
  "schemaVersion": "3.4.8",
  "updatedAt": "2022-07-14T23:19:57.199Z",
  "networkType": "ethereum",
  "devdoc": {
    "kind": "dev",
    "methods": {
      "approve(address,uint256)": {
        "details": "See {IERC721-approve}."
      },
      "balanceOf(address)": {
        "details": "See {IERC721-balanceOf}."
      },
      "getApproved(uint256)": {
        "details": "See {IERC721-getApproved}."
      },
      "isApprovedForAll(address,address)": {
        "details": "See {IERC721-isApprovedForAll}."
      },
      "name()": {
        "details": "See {IERC721Metadata-name}."
      },
      "ownerOf(uint256)": {
        "details": "See {IERC721-ownerOf}."
      },
      "safeTransferFrom(address,address,uint256)": {
        "details": "See {IERC721-safeTransferFrom}."
      },
      "safeTransferFrom(address,address,uint256,bytes)": {
        "details": "See {IERC721-safeTransferFrom}."
      },
      "setApprovalForAll(address,bool)": {
        "details": "See {IERC721-setApprovalForAll}."
      },
      "supportsInterface(bytes4)": {
        "details": "See {IERC165-supportsInterface}."
      },
      "symbol()": {
        "details": "See {IERC721Metadata-symbol}."
      },
      "tokenURI(uint256)": {
        "details": "See {IERC721Metadata-tokenURI}."
      },
      "transferFrom(address,address,uint256)": {
        "details": "See {IERC721-transferFrom}."
      }
    },
    "version": 1
  },
  "userdoc": {
    "kind": "user",
    "methods": {},
    "version": 1
  }
}